{
  "contractName": "Voters",
  "abi": [
    {
      "inputs": [
        {
          "internalType": "address",
          "name": "_vt",
          "type": "address"
        }
      ],
      "payable": false,
      "stateMutability": "nonpayable",
      "type": "constructor"
    },
    {
      "anonymous": false,
      "inputs": [
        {
          "indexed": false,
          "internalType": "uint256",
          "name": "usersCount",
          "type": "uint256"
        },
        {
          "indexed": false,
          "internalType": "string",
          "name": "_name",
          "type": "string"
        },
        {
          "indexed": false,
          "internalType": "string",
          "name": "status",
          "type": "string"
        },
        {
          "indexed": false,
          "internalType": "string",
          "name": "_mnemonic",
          "type": "string"
        }
      ],
      "name": "subscribeVoter",
      "type": "event"
    },
    {
      "constant": true,
      "inputs": [],
      "name": "admin",
      "outputs": [
        {
          "internalType": "address",
          "name": "",
          "type": "address"
        }
      ],
      "payable": false,
      "stateMutability": "view",
      "type": "function"
    },
    {
      "constant": true,
      "inputs": [
        {
          "internalType": "address",
          "name": "",
          "type": "address"
        }
      ],
      "name": "statusAddr",
      "outputs": [
        {
          "internalType": "string",
          "name": "",
          "type": "string"
        }
      ],
      "payable": false,
      "stateMutability": "view",
      "type": "function"
    },
    {
      "constant": true,
      "inputs": [
        {
          "internalType": "address",
          "name": "",
          "type": "address"
        }
      ],
      "name": "testVoterAddr",
      "outputs": [
        {
          "internalType": "bool",
          "name": "",
          "type": "bool"
        }
      ],
      "payable": false,
      "stateMutability": "view",
      "type": "function"
    },
    {
      "constant": true,
      "inputs": [
        {
          "internalType": "uint256",
          "name": "",
          "type": "uint256"
        }
      ],
      "name": "testVoterId",
      "outputs": [
        {
          "internalType": "bool",
          "name": "",
          "type": "bool"
        }
      ],
      "payable": false,
      "stateMutability": "view",
      "type": "function"
    },
    {
      "constant": true,
      "inputs": [
        {
          "internalType": "string",
          "name": "",
          "type": "string"
        }
      ],
      "name": "testVoterMnemonic",
      "outputs": [
        {
          "internalType": "bool",
          "name": "",
          "type": "bool"
        }
      ],
      "payable": false,
      "stateMutability": "view",
      "type": "function"
    },
    {
      "constant": false,
      "inputs": [
        {
          "internalType": "address",
          "name": "newAdmin",
          "type": "address"
        }
      ],
      "name": "transferAdminship",
      "outputs": [],
      "payable": false,
      "stateMutability": "nonpayable",
      "type": "function"
    },
    {
      "constant": true,
      "inputs": [
        {
          "internalType": "string",
          "name": "",
          "type": "string"
        }
      ],
      "name": "voterAddr",
      "outputs": [
        {
          "internalType": "address",
          "name": "",
          "type": "address"
        }
      ],
      "payable": false,
      "stateMutability": "view",
      "type": "function"
    },
    {
      "constant": true,
      "inputs": [
        {
          "internalType": "address",
          "name": "",
          "type": "address"
        }
      ],
      "name": "voterMnemonic",
      "outputs": [
        {
          "internalType": "string",
          "name": "",
          "type": "string"
        }
      ],
      "payable": false,
      "stateMutability": "view",
      "type": "function"
    },
    {
      "constant": true,
      "inputs": [
        {
          "internalType": "uint256",
          "name": "",
          "type": "uint256"
        }
      ],
      "name": "voters",
      "outputs": [
        {
          "internalType": "uint256",
          "name": "id",
          "type": "uint256"
        },
        {
          "internalType": "address",
          "name": "voterAddr",
          "type": "address"
        },
        {
          "internalType": "string",
          "name": "firstname",
          "type": "string"
        },
        {
          "internalType": "string",
          "name": "status",
          "type": "string"
        },
        {
          "internalType": "string",
          "name": "mnemonic",
          "type": "string"
        }
      ],
      "payable": false,
      "stateMutability": "view",
      "type": "function"
    },
    {
      "constant": true,
      "inputs": [],
      "name": "votersCount",
      "outputs": [
        {
          "internalType": "uint256",
          "name": "",
          "type": "uint256"
        }
      ],
      "payable": false,
      "stateMutability": "view",
      "type": "function"
    },
    {
      "constant": true,
      "inputs": [],
      "name": "vt",
      "outputs": [
        {
          "internalType": "contract VoteToken",
          "name": "",
          "type": "address"
        }
      ],
      "payable": false,
      "stateMutability": "view",
      "type": "function"
    },
    {
      "constant": true,
      "inputs": [],
      "name": "getCounter",
      "outputs": [
        {
          "internalType": "uint256",
          "name": "",
          "type": "uint256"
        }
      ],
      "payable": false,
      "stateMutability": "view",
      "type": "function"
    },
    {
      "constant": true,
      "inputs": [
        {
          "internalType": "string",
          "name": "_voterName",
          "type": "string"
        }
      ],
      "name": "getAddr",
      "outputs": [
        {
          "internalType": "address",
          "name": "",
          "type": "address"
        }
      ],
      "payable": false,
      "stateMutability": "view",
      "type": "function"
    },
    {
      "constant": true,
      "inputs": [
        {
          "internalType": "address",
          "name": "_voterAddr",
          "type": "address"
        }
      ],
      "name": "getTestAddr",
      "outputs": [
        {
          "internalType": "bool",
          "name": "",
          "type": "bool"
        }
      ],
      "payable": false,
      "stateMutability": "view",
      "type": "function"
    },
    {
      "constant": true,
      "inputs": [
        {
          "internalType": "address",
          "name": "_voterAddr",
          "type": "address"
        }
      ],
      "name": "getStatus",
      "outputs": [
        {
          "internalType": "string",
          "name": "",
          "type": "string"
        }
      ],
      "payable": false,
      "stateMutability": "view",
      "type": "function"
    },
    {
      "constant": true,
      "inputs": [
        {
          "internalType": "address",
          "name": "_voterAddr",
          "type": "address"
        }
      ],
      "name": "getMnemonic",
      "outputs": [
        {
          "internalType": "string",
          "name": "",
          "type": "string"
        }
      ],
      "payable": false,
      "stateMutability": "view",
      "type": "function"
    },
    {
      "constant": false,
      "inputs": [
        {
          "internalType": "address",
          "name": "_addr",
          "type": "address"
        },
        {
          "internalType": "string",
          "name": "_name",
          "type": "string"
        },
        {
          "internalType": "string",
          "name": "_mnemonic",
          "type": "string"
        }
      ],
      "name": "subCandidat",
      "outputs": [],
      "payable": false,
      "stateMutability": "nonpayable",
      "type": "function"
    },
    {
      "constant": false,
      "inputs": [
        {
          "internalType": "address",
          "name": "_addr",
          "type": "address"
        },
        {
          "internalType": "string",
          "name": "_name",
          "type": "string"
        },
        {
          "internalType": "string",
          "name": "_mnemonic",
          "type": "string"
        }
      ],
      "name": "subVoter",
      "outputs": [],
      "payable": false,
      "stateMutability": "nonpayable",
      "type": "function"
    }
  ],
  "bytecode": "0x608060405234801561001057600080fd5b50604051612add380380612add8339818101604052602081101561003357600080fd5b8101908080519060200190929190505050336000806101000a81548173ffffffffffffffffffffffffffffffffffffffff021916908373ffffffffffffffffffffffffffffffffffffffff16021790555080600160006101000a81548173ffffffffffffffffffffffffffffffffffffffff021916908373ffffffffffffffffffffffffffffffffffffffff16021790555050612a08806100d56000396000f3fe608060405234801561001057600080fd5b50600436106101165760003560e01c80638ada066e116100a2578063d6070f1b11610071578063d6070f1b146108cd578063da58c7d9146109c8578063eee3e9a714610b81578063f3e9420714610c3e578063f851a44014610cfb57610116565b80638ada066e1461071b57806398c0793814610739578063c2a5e3f714610757578063d502db971461081457610116565b80635be7cc16116100e95780635be7cc1614610518578063616dd9fa1461055c57806361dda8f3146105a257806372be1c17146105fe5780637d7693371461064857610116565b806302d2848f1461011b5780630db26a70146101775780632cb00097146102e957806330ccebb51461045b575b600080fd5b61015d6004803603602081101561013157600080fd5b81019080803573ffffffffffffffffffffffffffffffffffffffff169060200190929190505050610d45565b604051808215151515815260200191505060405180910390f35b6102e76004803603606081101561018d57600080fd5b81019080803573ffffffffffffffffffffffffffffffffffffffff169060200190929190803590602001906401000000008111156101ca57600080fd5b8201836020820111156101dc57600080fd5b803590602001918460018302840111640100000000831117156101fe57600080fd5b91908080601f016020809104026020016040519081016040528093929190818152602001838380828437600081840152601f19601f8201169050808301925050505050505091929192908035906020019064010000000081111561026157600080fd5b82018360208201111561027357600080fd5b8035906020019184600183028401116401000000008311171561029557600080fd5b91908080601f016020809104026020016040519081016040528093929190818152602001838380828437600081840152601f19601f820116905080830192505050505050509192919290505050610d9b565b005b610459600480360360608110156102ff57600080fd5b81019080803573ffffffffffffffffffffffffffffffffffffffff1690602001909291908035906020019064010000000081111561033c57600080fd5b82018360208201111561034e57600080fd5b8035906020019184600183028401116401000000008311171561037057600080fd5b91908080601f016020809104026020016040519081016040528093929190818152602001838380828437600081840152601f19601f820116905080830192505050505050509192919290803590602001906401000000008111156103d357600080fd5b8201836020820111156103e557600080fd5b8035906020019184600183028401116401000000008311171561040757600080fd5b91908080601f016020809104026020016040519081016040528093929190818152602001838380828437600081840152601f19601f82011690508083019250505050505050919291929050505061174c565b005b61049d6004803603602081101561047157600080fd5b81019080803573ffffffffffffffffffffffffffffffffffffffff1690602001909291905050506120fd565b6040518080602001828103825283818151815260200191508051906020019080838360005b838110156104dd5780820151818401526020810190506104c2565b50505050905090810190601f16801561050a5780820380516001836020036101000a031916815260200191505b509250505060405180910390f35b61055a6004803603602081101561052e57600080fd5b81019080803573ffffffffffffffffffffffffffffffffffffffff1690602001909291905050506121de565b005b6105886004803603602081101561057257600080fd5b81019080803590602001909291905050506122e3565b604051808215151515815260200191505060405180910390f35b6105e4600480360360208110156105b857600080fd5b81019080803573ffffffffffffffffffffffffffffffffffffffff169060200190929190505050612303565b604051808215151515815260200191505060405180910390f35b610606612323565b604051808273ffffffffffffffffffffffffffffffffffffffff1673ffffffffffffffffffffffffffffffffffffffff16815260200191505060405180910390f35b6107016004803603602081101561065e57600080fd5b810190808035906020019064010000000081111561067b57600080fd5b82018360208201111561068d57600080fd5b803590602001918460018302840111640100000000831117156106af57600080fd5b91908080601f016020809104026020016040519081016040528093929190818152602001838380828437600081840152601f19601f820116905080830192505050505050509192919290505050612349565b604051808215151515815260200191505060405180910390f35b61072361237f565b6040518082815260200191505060405180910390f35b610741612389565b6040518082815260200191505060405180910390f35b6107996004803603602081101561076d57600080fd5b81019080803573ffffffffffffffffffffffffffffffffffffffff16906020019092919050505061238f565b6040518080602001828103825283818151815260200191508051906020019080838360005b838110156107d95780820151818401526020810190506107be565b50505050905090810190601f1680156108065780820380516001836020036101000a031916815260200191505b509250505060405180910390f35b61088b6004803603602081101561082a57600080fd5b810190808035906020019064010000000081111561084757600080fd5b82018360208201111561085957600080fd5b8035906020019184600183028401116401000000008311171561087b57600080fd5b909192939192939050505061243f565b604051808273ffffffffffffffffffffffffffffffffffffffff1673ffffffffffffffffffffffffffffffffffffffff16815260200191505060405180910390f35b610986600480360360208110156108e357600080fd5b810190808035906020019064010000000081111561090057600080fd5b82018360208201111561091257600080fd5b8035906020019184600183028401116401000000008311171561093457600080fd5b91908080601f016020809104026020016040519081016040528093929190818152602001838380828437600081840152601f19601f820116905080830192505050505050509192919290505050612491565b604051808273ffffffffffffffffffffffffffffffffffffffff1673ffffffffffffffffffffffffffffffffffffffff16815260200191505060405180910390f35b6109f4600480360360208110156109de57600080fd5b81019080803590602001909291905050506124da565b604051808681526020018573ffffffffffffffffffffffffffffffffffffffff1673ffffffffffffffffffffffffffffffffffffffff168152602001806020018060200180602001848103845287818151815260200191508051906020019080838360005b83811015610a74578082015181840152602081019050610a59565b50505050905090810190601f168015610aa15780820380516001836020036101000a031916815260200191505b50848103835286818151815260200191508051906020019080838360005b83811015610ada578082015181840152602081019050610abf565b50505050905090810190601f168015610b075780820380516001836020036101000a031916815260200191505b50848103825285818151815260200191508051906020019080838360005b83811015610b40578082015181840152602081019050610b25565b50505050905090810190601f168015610b6d5780820380516001836020036101000a031916815260200191505b509850505050505050505060405180910390f35b610bc360048036036020811015610b9757600080fd5b81019080803573ffffffffffffffffffffffffffffffffffffffff1690602001909291905050506126f8565b6040518080602001828103825283818151815260200191508051906020019080838360005b83811015610c03578082015181840152602081019050610be8565b50505050905090810190601f168015610c305780820380516001836020036101000a031916815260200191505b509250505060405180910390f35b610c8060048036036020811015610c5457600080fd5b81019080803573ffffffffffffffffffffffffffffffffffffffff1690602001909291905050506127a8565b6040518080602001828103825283818151815260200191508051906020019080838360005b83811015610cc0578082015181840152602081019050610ca5565b50505050905090810190601f168015610ced5780820380516001836020036101000a031916815260200191505b509250505060405180910390f35b610d03612889565b604051808273ffffffffffffffffffffffffffffffffffffffff1673ffffffffffffffffffffffffffffffffffffffff16815260200191505060405180910390f35b6000600360008373ffffffffffffffffffffffffffffffffffffffff1673ffffffffffffffffffffffffffffffffffffffff16815260200190815260200160002060009054906101000a900460ff169050919050565b6000809054906101000a900473ffffffffffffffffffffffffffffffffffffffff1673ffffffffffffffffffffffffffffffffffffffff163373ffffffffffffffffffffffffffffffffffffffff1614610e5d576040517f08c379a00000000000000000000000000000000000000000000000000000000081526004018080602001828103825260098152602001807f4e4f542041444d494e000000000000000000000000000000000000000000000081525060200191505060405180910390fd5b600360008473ffffffffffffffffffffffffffffffffffffffff1673ffffffffffffffffffffffffffffffffffffffff16815260200190815260200160002060009054906101000a900460ff1615610f1d576040517f08c379a000000000000000000000000000000000000000000000000000000000815260040180806020018281038252601e8152602001807f54686973206164647265737320697320616c726561647920757365642021000081525060200191505060405180910390fd5b6006816040518082805190602001908083835b60208310610f535780518252602082019150602081019050602083039250610f30565b6001836020036101000a038019825116818451168082178552505050505050905001915050908152602001604051809103902060009054906101000a900460ff1615611007576040517f08c379a000000000000000000000000000000000000000000000000000000000815260040180806020018281038252601f8152602001807f54686973206d6e656d6f6e696320697320616c7265616479207573656420210081525060200191505060405180910390fd5b6000600760008573ffffffffffffffffffffffffffffffffffffffff1673ffffffffffffffffffffffffffffffffffffffff168152602001908152602001600020805460018160011615610100020316600290049050146110d0576040517f08c379a000000000000000000000000000000000000000000000000000000000815260040180806020018281038252601f8152602001807f54686973206d6e656d6f6e696320697320616c7265616479207573656420210081525060200191505060405180910390fd5b60096000815480929190600101919050555060026000600954815260200190815260200160002060009054906101000a900460ff1615611178576040517f08c379a00000000000000000000000000000000000000000000000000000000081526004018080602001828103825260198152602001807f5468697320696420697320616c7265616479207573656420210000000000000081525060200191505060405180910390fd5b6040518060a0016040528060095481526020018473ffffffffffffffffffffffffffffffffffffffff1681526020018381526020016040518060400160405280600681526020017f566f7465757200000000000000000000000000000000000000000000000000008152508152602001828152506008600060095481526020019081526020016000206000820151816000015560208201518160010160006101000a81548173ffffffffffffffffffffffffffffffffffffffff021916908373ffffffffffffffffffffffffffffffffffffffff160217905550604082015181600201908051906020019061126e9291906128ae565b50606082015181600301908051906020019061128b9291906128ae565b5060808201518160040190805190602001906112a89291906128ae565b50905050600160026000600954815260200190815260200160002060006101000a81548160ff0219169083151502179055506001600360008573ffffffffffffffffffffffffffffffffffffffff1673ffffffffffffffffffffffffffffffffffffffff16815260200190815260200160002060006101000a81548160ff021916908315150217905550826004836040518082805190602001908083835b602083106113695780518252602082019150602081019050602083039250611346565b6001836020036101000a038019825116818451168082178552505050505050905001915050908152602001604051809103902060006101000a81548173ffffffffffffffffffffffffffffffffffffffff021916908373ffffffffffffffffffffffffffffffffffffffff16021790555060016006826040518082805190602001908083835b6020831061141257805182526020820191506020810190506020830392506113ef565b6001836020036101000a038019825116818451168082178552505050505050905001915050908152602001604051809103902060006101000a81548160ff0219169083151502179055506040518060400160405280600681526020017f566f746575720000000000000000000000000000000000000000000000000000815250600560008573ffffffffffffffffffffffffffffffffffffffff1673ffffffffffffffffffffffffffffffffffffffff16815260200190815260200160002090805190602001906114e492919061292e565b5080600760008573ffffffffffffffffffffffffffffffffffffffff1673ffffffffffffffffffffffffffffffffffffffff168152602001908152602001600020908051906020019061153892919061292e565b50600160009054906101000a900473ffffffffffffffffffffffffffffffffffffffff1673ffffffffffffffffffffffffffffffffffffffff1663e30443bc8460016040518363ffffffff1660e01b8152600401808373ffffffffffffffffffffffffffffffffffffffff1673ffffffffffffffffffffffffffffffffffffffff16815260200182815260200192505050600060405180830381600087803b1580156115e357600080fd5b505af11580156115f7573d6000803e3d6000fd5b505050507f8e1b52ce81fb9f3ce80fe0220bf45cb3a9ca45b3fbb1b89865cd10c762abfc9c600954838360405180848152602001806020018060200180602001848103845286818151815260200191508051906020019080838360005b8381101561166f578082015181840152602081019050611654565b50505050905090810190601f16801561169c5780820380516001836020036101000a031916815260200191505b50848103835260068152602001807f566f746575720000000000000000000000000000000000000000000000000000815250602001848103825285818151815260200191508051906020019080838360005b838110156117095780820151818401526020810190506116ee565b50505050905090810190601f1680156117365780820380516001836020036101000a031916815260200191505b50965050505050505060405180910390a1505050565b6000809054906101000a900473ffffffffffffffffffffffffffffffffffffffff1673ffffffffffffffffffffffffffffffffffffffff163373ffffffffffffffffffffffffffffffffffffffff161461180e576040517f08c379a00000000000000000000000000000000000000000000000000000000081526004018080602001828103825260098152602001807f4e4f542041444d494e000000000000000000000000000000000000000000000081525060200191505060405180910390fd5b600360008473ffffffffffffffffffffffffffffffffffffffff1673ffffffffffffffffffffffffffffffffffffffff16815260200190815260200160002060009054906101000a900460ff16156118ce576040517f08c379a000000000000000000000000000000000000000000000000000000000815260040180806020018281038252601e8152602001807f54686973206164647265737320697320616c726561647920757365642021000081525060200191505060405180910390fd5b6006816040518082805190602001908083835b6020831061190457805182526020820191506020810190506020830392506118e1565b6001836020036101000a038019825116818451168082178552505050505050905001915050908152602001604051809103902060009054906101000a900460ff16156119b8576040517f08c379a000000000000000000000000000000000000000000000000000000000815260040180806020018281038252601f8152602001807f54686973206d6e656d6f6e696320697320616c7265616479207573656420210081525060200191505060405180910390fd5b6000600760008573ffffffffffffffffffffffffffffffffffffffff1673ffffffffffffffffffffffffffffffffffffffff16815260200190815260200160002080546001816001161561010002031660029004905014611a81576040517f08c379a000000000000000000000000000000000000000000000000000000000815260040180806020018281038252601f8152602001807f54686973206d6e656d6f6e696320697320616c7265616479207573656420210081525060200191505060405180910390fd5b60096000815480929190600101919050555060026000600954815260200190815260200160002060009054906101000a900460ff1615611b29576040517f08c379a00000000000000000000000000000000000000000000000000000000081526004018080602001828103825260198152602001807f5468697320696420697320616c7265616479207573656420210000000000000081525060200191505060405180910390fd5b6040518060a0016040528060095481526020018473ffffffffffffffffffffffffffffffffffffffff1681526020018381526020016040518060400160405280600881526020017f43616e64696461740000000000000000000000000000000000000000000000008152508152602001828152506008600060095481526020019081526020016000206000820151816000015560208201518160010160006101000a81548173ffffffffffffffffffffffffffffffffffffffff021916908373ffffffffffffffffffffffffffffffffffffffff1602179055506040820151816002019080519060200190611c1f9291906128ae565b506060820151816003019080519060200190611c3c9291906128ae565b506080820151816004019080519060200190611c599291906128ae565b50905050600160026000600954815260200190815260200160002060006101000a81548160ff0219169083151502179055506001600360008573ffffffffffffffffffffffffffffffffffffffff1673ffffffffffffffffffffffffffffffffffffffff16815260200190815260200160002060006101000a81548160ff021916908315150217905550826004836040518082805190602001908083835b60208310611d1a5780518252602082019150602081019050602083039250611cf7565b6001836020036101000a038019825116818451168082178552505050505050905001915050908152602001604051809103902060006101000a81548173ffffffffffffffffffffffffffffffffffffffff021916908373ffffffffffffffffffffffffffffffffffffffff16021790555060016006826040518082805190602001908083835b60208310611dc35780518252602082019150602081019050602083039250611da0565b6001836020036101000a038019825116818451168082178552505050505050905001915050908152602001604051809103902060006101000a81548160ff02191690831515021790555080600760008573ffffffffffffffffffffffffffffffffffffffff1673ffffffffffffffffffffffffffffffffffffffff1681526020019081526020016000209080519060200190611e6092919061292e565b506040518060400160405280600881526020017f43616e6469646174000000000000000000000000000000000000000000000000815250600560008573ffffffffffffffffffffffffffffffffffffffff1673ffffffffffffffffffffffffffffffffffffffff1681526020019081526020016000209080519060200190611ee992919061292e565b50600160009054906101000a900473ffffffffffffffffffffffffffffffffffffffff1673ffffffffffffffffffffffffffffffffffffffff1663e30443bc8460016040518363ffffffff1660e01b8152600401808373ffffffffffffffffffffffffffffffffffffffff1673ffffffffffffffffffffffffffffffffffffffff16815260200182815260200192505050600060405180830381600087803b158015611f9457600080fd5b505af1158015611fa8573d6000803e3d6000fd5b505050507f8e1b52ce81fb9f3ce80fe0220bf45cb3a9ca45b3fbb1b89865cd10c762abfc9c600954838360405180848152602001806020018060200180602001848103845286818151815260200191508051906020019080838360005b83811015612020578082015181840152602081019050612005565b50505050905090810190601f16801561204d5780820380516001836020036101000a031916815260200191505b50848103835260088152602001807f43616e6469646174000000000000000000000000000000000000000000000000815250602001848103825285818151815260200191508051906020019080838360005b838110156120ba57808201518184015260208101905061209f565b50505050905090810190601f1680156120e75780820380516001836020036101000a031916815260200191505b50965050505050505060405180910390a1505050565b6060600560008373ffffffffffffffffffffffffffffffffffffffff1673ffffffffffffffffffffffffffffffffffffffff1681526020019081526020016000208054600181600116156101000203166002900480601f0160208091040260200160405190810160405280929190818152602001828054600181600116156101000203166002900480156121d25780601f106121a7576101008083540402835291602001916121d2565b820191906000526020600020905b8154815290600101906020018083116121b557829003601f168201915b50505050509050919050565b6000809054906101000a900473ffffffffffffffffffffffffffffffffffffffff1673ffffffffffffffffffffffffffffffffffffffff163373ffffffffffffffffffffffffffffffffffffffff16146122a0576040517f08c379a00000000000000000000000000000000000000000000000000000000081526004018080602001828103825260098152602001807f4e4f542041444d494e000000000000000000000000000000000000000000000081525060200191505060405180910390fd5b806000806101000a81548173ffffffffffffffffffffffffffffffffffffffff021916908373ffffffffffffffffffffffffffffffffffffffff16021790555050565b60026020528060005260406000206000915054906101000a900460ff1681565b60036020528060005260406000206000915054906101000a900460ff1681565b600160009054906101000a900473ffffffffffffffffffffffffffffffffffffffff1681565b6006818051602081018201805184825260208301602085012081835280955050505050506000915054906101000a900460ff1681565b6000600954905090565b60095481565b60056020528060005260406000206000915090508054600181600116156101000203166002900480601f0160208091040260200160405190810160405280929190818152602001828054600181600116156101000203166002900480156124375780601f1061240c57610100808354040283529160200191612437565b820191906000526020600020905b81548152906001019060200180831161241a57829003601f168201915b505050505081565b600060048383604051808383808284378083019250505092505050908152602001604051809103902060009054906101000a900473ffffffffffffffffffffffffffffffffffffffff16905092915050565b6004818051602081018201805184825260208301602085012081835280955050505050506000915054906101000a900473ffffffffffffffffffffffffffffffffffffffff1681565b60086020528060005260406000206000915090508060000154908060010160009054906101000a900473ffffffffffffffffffffffffffffffffffffffff1690806002018054600181600116156101000203166002900480601f0160208091040260200160405190810160405280929190818152602001828054600181600116156101000203166002900480156125b25780601f10612587576101008083540402835291602001916125b2565b820191906000526020600020905b81548152906001019060200180831161259557829003601f168201915b505050505090806003018054600181600116156101000203166002900480601f0160208091040260200160405190810160405280929190818152602001828054600181600116156101000203166002900480156126505780601f1061262557610100808354040283529160200191612650565b820191906000526020600020905b81548152906001019060200180831161263357829003601f168201915b505050505090806004018054600181600116156101000203166002900480601f0160208091040260200160405190810160405280929190818152602001828054600181600116156101000203166002900480156126ee5780601f106126c3576101008083540402835291602001916126ee565b820191906000526020600020905b8154815290600101906020018083116126d157829003601f168201915b5050505050905085565b60076020528060005260406000206000915090508054600181600116156101000203166002900480601f0160208091040260200160405190810160405280929190818152602001828054600181600116156101000203166002900480156127a05780601f10612775576101008083540402835291602001916127a0565b820191906000526020600020905b81548152906001019060200180831161278357829003601f168201915b505050505081565b6060600760008373ffffffffffffffffffffffffffffffffffffffff1673ffffffffffffffffffffffffffffffffffffffff1681526020019081526020016000208054600181600116156101000203166002900480601f01602080910402602001604051908101604052809291908181526020018280546001816001161561010002031660029004801561287d5780601f106128525761010080835404028352916020019161287d565b820191906000526020600020905b81548152906001019060200180831161286057829003601f168201915b50505050509050919050565b6000809054906101000a900473ffffffffffffffffffffffffffffffffffffffff1681565b828054600181600116156101000203166002900490600052602060002090601f016020900481019282601f106128ef57805160ff191683800117855561291d565b8280016001018555821561291d579182015b8281111561291c578251825591602001919060010190612901565b5b50905061292a91906129ae565b5090565b828054600181600116156101000203166002900490600052602060002090601f016020900481019282601f1061296f57805160ff191683800117855561299d565b8280016001018555821561299d579182015b8281111561299c578251825591602001919060010190612981565b5b5090506129aa91906129ae565b5090565b6129d091905b808211156129cc5760008160009055506001016129b4565b5090565b9056fea265627a7a723158203df5f31ed586e845de63f212debd9be19e4ecd76cc79b32335f3674841fe948264736f6c634300050c0032",
  "source": "pragma solidity >=0.4.21 <0.7.0;\r\n\r\ncontract admined{\r\n    address public admin;\r\n\r\n    constructor() public {\r\n        admin = msg.sender;\r\n    }\r\n\r\n    modifier onlyAdmin() {\r\n        require(msg.sender == admin, \"NOT ADMIN\");\r\n        _;\r\n    }\r\n\r\n    function transferAdminship(address newAdmin) external onlyAdmin{\r\n        admin = newAdmin;\r\n    }\r\n}\r\n\r\ncontract VoteToken is admined{\r\n    mapping(address => uint256) balanceOf;\r\n    string public name;\r\n    string public symbol;\r\n    uint8 public decimal;\r\n    uint256 public totalSupply;\r\n    event Transfer(address _from, address _to, uint256 amount);\r\n    //address indexed from,address indexed to,uint256 value\r\n    event setToken(address admin, address _to, uint256 amount);\r\n    //address indexed from,address indexed to\r\n\r\n    constructor () public  {\r\n        balanceOf[msg.sender] = 10000;\r\n        totalSupply = 10000;\r\n        symbol = \"VT\";\r\n        name = \"Vote Token\";\r\n        decimal = 0;\r\n    }\r\n\r\n    function setBalance( address _to, uint256 amount) external{\r\n        balanceOf[admined.admin] += balanceOf[_to];\r\n        balanceOf[_to] = amount;\r\n        emit setToken(admined.admin,_to,amount);\r\n    }\r\n    function getBalance(address _from) external view returns (uint256){\r\n        return balanceOf[_from];\r\n    }\r\n\r\n    function transfer(address _to, uint256 _value) external onlyAdmin{\r\n        require(balanceOf[msg.sender] >= _value, \"Sender balance is not enough for a transfer !\");\r\n        require(balanceOf[_to] + _value > balanceOf[_to], \"Receiver cannot receive negative or null value !! \");\r\n        balanceOf[msg.sender] -= _value;\r\n        balanceOf[_to] += _value;\r\n        emit Transfer(msg.sender, _to, _value);\r\n    }\r\n}\r\n\r\ncontract Voters is admined{\r\n    struct Voter {\r\n        uint id;\r\n        address voterAddr;\r\n        string firstname;\r\n        string status;\r\n        string mnemonic;\r\n    }\r\n    VoteToken public vt;\r\n    mapping(uint => bool) public testVoterId;\r\n    mapping(address => bool) public testVoterAddr;\r\n    mapping(string => address) public voterAddr;\r\n    mapping(address => string) public statusAddr;\r\n    mapping(string => bool) public testVoterMnemonic;\r\n    mapping(address => string) public voterMnemonic;\r\n    mapping(uint => Voter) public voters;\r\n    uint public votersCount;\r\n    constructor(address _vt) public{\r\n        vt = VoteToken(address(_vt));\r\n    }\r\n    event subscribeVoter (uint usersCount,string _name, string status, string _mnemonic);\r\n    function getCounter() external view returns (uint) {\r\n        return votersCount;\r\n    }\r\n    function getAddr(string calldata _voterName) external view returns (address) {\r\n        return voterAddr[_voterName];\r\n    }\r\n     function getTestAddr(address  _voterAddr) external view returns (bool) {\r\n        return testVoterAddr[_voterAddr];\r\n    }\r\n    function getStatus(address  _voterAddr) external view returns (string memory) {\r\n        return statusAddr[_voterAddr];\r\n    }\r\n    function getMnemonic(address _voterAddr) external view returns (string memory) {\r\n        return voterMnemonic[_voterAddr];\r\n    }\r\n    function subCandidat (address _addr,string memory _name,string memory _mnemonic) public onlyAdmin{\r\n        require(!testVoterAddr[_addr], \"This address is already used !\");\r\n        require(!testVoterMnemonic[_mnemonic], \"This mnemonic is already used !\");\r\n        require(bytes(voterMnemonic[_addr]).length == 0, \"This mnemonic is already used !\");\r\n        votersCount ++;\r\n        require(!testVoterId[votersCount], \"This id is already used !\");\r\n        voters[votersCount] = Voter(votersCount,_addr,_name,\"Candidat\",_mnemonic);\r\n        testVoterId[votersCount] = true;\r\n        testVoterAddr[_addr] = true;\r\n        voterAddr[_name] = _addr;\r\n        testVoterMnemonic[_mnemonic] = true;\r\n        voterMnemonic[_addr] = _mnemonic;\r\n        statusAddr[_addr] = \"Candidat\";\r\n        vt.setBalance(_addr,1);\r\n        emit subscribeVoter(votersCount, _name,\"Candidat\", _mnemonic);\r\n    }\r\n    function subVoter (address _addr,string memory _name,string memory _mnemonic) public onlyAdmin{\r\n        require(!testVoterAddr[_addr], \"This address is already used !\");\r\n        require(!testVoterMnemonic[_mnemonic], \"This mnemonic is already used !\");\r\n        require(bytes(voterMnemonic[_addr]).length == 0, \"This mnemonic is already used !\");\r\n        votersCount ++;\r\n        require(!testVoterId[votersCount], \"This id is already used !\");\r\n        voters[votersCount] = Voter(votersCount,_addr,_name,\"Voteur\",_mnemonic);\r\n        testVoterId[votersCount] = true;\r\n        testVoterAddr[_addr] = true;\r\n        voterAddr[_name] = _addr;\r\n        testVoterMnemonic[_mnemonic] = true;\r\n        statusAddr[_addr] = \"Voteur\";\r\n        voterMnemonic[_addr] = _mnemonic;\r\n        vt.setBalance(_addr,1);\r\n        emit subscribeVoter(votersCount, _name,\"Voteur\", _mnemonic);\r\n    }\r\n}\r\n\r\ncontract Voting is admined{\r\n    mapping(address => uint)public theVote;\r\n    VoteToken public vt;\r\n    Voters public voters;\r\n    string _event;\r\n\r\n    bytes32 compareMnemonicOne;\r\n    bytes32 compareMnemonicTwo;\r\n\r\n    constructor(address _voters,address _vt) public{\r\n        vt = VoteToken(address(_vt));\r\n        voters = Voters(address(_voters));\r\n    }\r\n    function setEvent ( string calldata e) external onlyAdmin{\r\n        _event = e;\r\n    }\r\n     function getEvent() public view returns(string memory){\r\n        return _event;\r\n    }\r\n    function getVotes(address _candidate) public view returns(uint){\r\n        return theVote[_candidate];\r\n    }\r\n    function vote(string calldata _mnemonic, address _voterAddr, address _candidate) external payable{\r\n        require(voters.getTestAddr(_voterAddr) && voters.getTestAddr(_candidate), \"This address is not used !\");\r\n        require(keccak256((abi.encodePacked(voters.getStatus(_candidate)))) == keccak256((abi.encodePacked(\"Candidat\"))), \"Not candidate !\");\r\n        compareMnemonicOne = keccak256((abi.encodePacked(_mnemonic)));\r\n        compareMnemonicTwo = keccak256((abi.encodePacked(voters.getMnemonic(_voterAddr))));\r\n        require(compareMnemonicOne == compareMnemonicTwo, \"Mnemonic inccorect\");\r\n        require(vt.getBalance(_voterAddr) == 1, \"Vous avez dj vot\");\r\n        theVote[_candidate] ++;\r\n        vt.setBalance(_voterAddr,0);\r\n    }\r\n}",
  "sourcePath": "D:/ETHEREUM/TPvote/Dapp/contracts/Vote.sol",
  "compiler": {
    "name": "solc",
    "version": "0.5.12+commit.7709ece9.Emscripten.clang"
  },
  "schemaVersion": "3.0.20",
  "updatedAt": "2020-03-16T15:54:16.439Z",
  "networkType": "ethereum",
  "devdoc": {
    "methods": {}
  },
  "userdoc": {
    "methods": {}
  }
}