{
  "contractName": "Voting",
  "abi": [
    {
      "inputs": [
        {
          "internalType": "address",
          "name": "_voters",
          "type": "address"
        },
        {
          "internalType": "address",
          "name": "_vt",
          "type": "address"
        }
      ],
      "payable": false,
      "stateMutability": "nonpayable",
      "type": "constructor"
    },
    {
      "constant": true,
      "inputs": [],
      "name": "admin",
      "outputs": [
        {
          "internalType": "address",
          "name": "",
          "type": "address"
        }
      ],
      "payable": false,
      "stateMutability": "view",
      "type": "function"
    },
    {
      "constant": true,
      "inputs": [
        {
          "internalType": "address",
          "name": "",
          "type": "address"
        }
      ],
      "name": "theVote",
      "outputs": [
        {
          "internalType": "uint256",
          "name": "",
          "type": "uint256"
        }
      ],
      "payable": false,
      "stateMutability": "view",
      "type": "function"
    },
    {
      "constant": false,
      "inputs": [
        {
          "internalType": "address",
          "name": "newAdmin",
          "type": "address"
        }
      ],
      "name": "transferAdminship",
      "outputs": [],
      "payable": false,
      "stateMutability": "nonpayable",
      "type": "function"
    },
    {
      "constant": true,
      "inputs": [],
      "name": "voters",
      "outputs": [
        {
          "internalType": "contract Voters",
          "name": "",
          "type": "address"
        }
      ],
      "payable": false,
      "stateMutability": "view",
      "type": "function"
    },
    {
      "constant": true,
      "inputs": [],
      "name": "vt",
      "outputs": [
        {
          "internalType": "contract VoteToken",
          "name": "",
          "type": "address"
        }
      ],
      "payable": false,
      "stateMutability": "view",
      "type": "function"
    },
    {
      "constant": false,
      "inputs": [
        {
          "internalType": "string",
          "name": "e",
          "type": "string"
        }
      ],
      "name": "setEvent",
      "outputs": [],
      "payable": false,
      "stateMutability": "nonpayable",
      "type": "function"
    },
    {
      "constant": true,
      "inputs": [],
      "name": "getEvent",
      "outputs": [
        {
          "internalType": "string",
          "name": "",
          "type": "string"
        }
      ],
      "payable": false,
      "stateMutability": "view",
      "type": "function"
    },
    {
      "constant": true,
      "inputs": [
        {
          "internalType": "address",
          "name": "_candidate",
          "type": "address"
        }
      ],
      "name": "getVotes",
      "outputs": [
        {
          "internalType": "uint256",
          "name": "",
          "type": "uint256"
        }
      ],
      "payable": false,
      "stateMutability": "view",
      "type": "function"
    },
    {
      "constant": false,
      "inputs": [
        {
          "internalType": "string",
          "name": "_mnemonic",
          "type": "string"
        },
        {
          "internalType": "address",
          "name": "_voterAddr",
          "type": "address"
        },
        {
          "internalType": "address",
          "name": "_candidate",
          "type": "address"
        }
      ],
      "name": "vote",
      "outputs": [],
      "payable": true,
      "stateMutability": "payable",
      "type": "function"
    }
  ],
  "bytecode": "0x608060405234801561001057600080fd5b506040516113db3803806113db8339818101604052604081101561003357600080fd5b810190808051906020019092919080519060200190929190505050336000806101000a81548173ffffffffffffffffffffffffffffffffffffffff021916908373ffffffffffffffffffffffffffffffffffffffff16021790555080600260006101000a81548173ffffffffffffffffffffffffffffffffffffffff021916908373ffffffffffffffffffffffffffffffffffffffff16021790555081600360006101000a81548173ffffffffffffffffffffffffffffffffffffffff021916908373ffffffffffffffffffffffffffffffffffffffff16021790555050506112ba806101216000396000f3fe6080604052600436106100865760003560e01c806379c0e2031161005957806379c0e203146101ef5780639ab24eb0146102a8578063bf819c201461030d578063dabb8ae61461039d578063f851a4401461042357610086565b8063131e82191461008b578063350580ea146100f05780635be7cc161461014757806372be1c1714610198575b600080fd5b34801561009757600080fd5b506100da600480360360208110156100ae57600080fd5b81019080803573ffffffffffffffffffffffffffffffffffffffff16906020019092919050505061047a565b6040518082815260200191505060405180910390f35b3480156100fc57600080fd5b50610105610492565b604051808273ffffffffffffffffffffffffffffffffffffffff1673ffffffffffffffffffffffffffffffffffffffff16815260200191505060405180910390f35b34801561015357600080fd5b506101966004803603602081101561016a57600080fd5b81019080803573ffffffffffffffffffffffffffffffffffffffff1690602001909291905050506104b8565b005b3480156101a457600080fd5b506101ad6105bd565b604051808273ffffffffffffffffffffffffffffffffffffffff1673ffffffffffffffffffffffffffffffffffffffff16815260200191505060405180910390f35b6102a66004803603606081101561020557600080fd5b810190808035906020019064010000000081111561022257600080fd5b82018360208201111561023457600080fd5b8035906020019184600183028401116401000000008311171561025657600080fd5b9091929391929390803573ffffffffffffffffffffffffffffffffffffffff169060200190929190803573ffffffffffffffffffffffffffffffffffffffff1690602001909291905050506105e3565b005b3480156102b457600080fd5b506102f7600480360360208110156102cb57600080fd5b81019080803573ffffffffffffffffffffffffffffffffffffffff169060200190929190505050610ff8565b6040518082815260200191505060405180910390f35b34801561031957600080fd5b50610322611041565b6040518080602001828103825283818151815260200191508051906020019080838360005b83811015610362578082015181840152602081019050610347565b50505050905090810190601f16801561038f5780820380516001836020036101000a031916815260200191505b509250505060405180910390f35b3480156103a957600080fd5b50610421600480360360208110156103c057600080fd5b81019080803590602001906401000000008111156103dd57600080fd5b8201836020820111156103ef57600080fd5b8035906020019184600183028401116401000000008311171561041157600080fd5b90919293919293905050506110e3565b005b34801561042f57600080fd5b506104386111bb565b604051808273ffffffffffffffffffffffffffffffffffffffff1673ffffffffffffffffffffffffffffffffffffffff16815260200191505060405180910390f35b60016020528060005260406000206000915090505481565b600360009054906101000a900473ffffffffffffffffffffffffffffffffffffffff1681565b6000809054906101000a900473ffffffffffffffffffffffffffffffffffffffff1673ffffffffffffffffffffffffffffffffffffffff163373ffffffffffffffffffffffffffffffffffffffff161461057a576040517f08c379a00000000000000000000000000000000000000000000000000000000081526004018080602001828103825260098152602001807f4e4f542041444d494e000000000000000000000000000000000000000000000081525060200191505060405180910390fd5b806000806101000a81548173ffffffffffffffffffffffffffffffffffffffff021916908373ffffffffffffffffffffffffffffffffffffffff16021790555050565b600260009054906101000a900473ffffffffffffffffffffffffffffffffffffffff1681565b600360009054906101000a900473ffffffffffffffffffffffffffffffffffffffff1673ffffffffffffffffffffffffffffffffffffffff166302d2848f836040518263ffffffff1660e01b8152600401808273ffffffffffffffffffffffffffffffffffffffff1673ffffffffffffffffffffffffffffffffffffffff16815260200191505060206040518083038186803b15801561068257600080fd5b505afa158015610696573d6000803e3d6000fd5b505050506040513d60208110156106ac57600080fd5b8101908080519060200190929190505050801561079f5750600360009054906101000a900473ffffffffffffffffffffffffffffffffffffffff1673ffffffffffffffffffffffffffffffffffffffff166302d2848f826040518263ffffffff1660e01b8152600401808273ffffffffffffffffffffffffffffffffffffffff1673ffffffffffffffffffffffffffffffffffffffff16815260200191505060206040518083038186803b15801561076357600080fd5b505afa158015610777573d6000803e3d6000fd5b505050506040513d602081101561078d57600080fd5b81019080805190602001909291905050505b610811576040517f08c379a000000000000000000000000000000000000000000000000000000000815260040180806020018281038252601a8152602001807f546869732061646472657373206973206e6f742075736564202100000000000081525060200191505060405180910390fd5b60405160200180807f43616e6469646174000000000000000000000000000000000000000000000000815250600801905060405160208183030381529060405280519060200120600360009054906101000a900473ffffffffffffffffffffffffffffffffffffffff1673ffffffffffffffffffffffffffffffffffffffff166330ccebb5836040518263ffffffff1660e01b8152600401808273ffffffffffffffffffffffffffffffffffffffff1673ffffffffffffffffffffffffffffffffffffffff16815260200191505060006040518083038186803b1580156108f757600080fd5b505afa15801561090b573d6000803e3d6000fd5b505050506040513d6000823e3d601f19601f82011682018060405250602081101561093557600080fd5b810190808051604051939291908464010000000082111561095557600080fd5b8382019150602082018581111561096b57600080fd5b825186600182028301116401000000008211171561098857600080fd5b8083526020830192505050908051906020019080838360005b838110156109bc5780820151818401526020810190506109a1565b50505050905090810190601f1680156109e95780820380516001836020036101000a031916815260200191505b506040525050506040516020018082805190602001908083835b60208310610a265780518252602082019150602081019050602083039250610a03565b6001836020036101000a0380198251168184511680821785525050505050509050019150506040516020818303038152906040528051906020012014610ad4576040517f08c379a000000000000000000000000000000000000000000000000000000000815260040180806020018281038252600f8152602001807f4e6f742063616e6469646174652021000000000000000000000000000000000081525060200191505060405180910390fd5b838360405160200180838380828437808301925050509250505060405160208183030381529060405280519060200120600581905550600360009054906101000a900473ffffffffffffffffffffffffffffffffffffffff1673ffffffffffffffffffffffffffffffffffffffff1663f3e94207836040518263ffffffff1660e01b8152600401808273ffffffffffffffffffffffffffffffffffffffff1673ffffffffffffffffffffffffffffffffffffffff16815260200191505060006040518083038186803b158015610ba957600080fd5b505afa158015610bbd573d6000803e3d6000fd5b505050506040513d6000823e3d601f19601f820116820180604052506020811015610be757600080fd5b8101908080516040519392919084640100000000821115610c0757600080fd5b83820191506020820185811115610c1d57600080fd5b8251866001820283011164010000000082111715610c3a57600080fd5b8083526020830192505050908051906020019080838360005b83811015610c6e578082015181840152602081019050610c53565b50505050905090810190601f168015610c9b5780820380516001836020036101000a031916815260200191505b506040525050506040516020018082805190602001908083835b60208310610cd85780518252602082019150602081019050602083039250610cb5565b6001836020036101000a0380198251168184511680821785525050505050509050019150506040516020818303038152906040528051906020012060068190555060065460055414610d92576040517f08c379a00000000000000000000000000000000000000000000000000000000081526004018080602001828103825260128152602001807f4d6e656d6f6e696320696e63636f72656374000000000000000000000000000081525060200191505060405180910390fd5b6001600260009054906101000a900473ffffffffffffffffffffffffffffffffffffffff1673ffffffffffffffffffffffffffffffffffffffff1663f8b2cb4f846040518263ffffffff1660e01b8152600401808273ffffffffffffffffffffffffffffffffffffffff1673ffffffffffffffffffffffffffffffffffffffff16815260200191505060206040518083038186803b158015610e3357600080fd5b505afa158015610e47573d6000803e3d6000fd5b505050506040513d6020811015610e5d57600080fd5b810190808051906020019092919050505014610ee1576040517f08c379a00000000000000000000000000000000000000000000000000000000081526004018080602001828103825260168152602001807f566f7573206176657a2064c3a96ac3a020766f74c3a90000000000000000000081525060200191505060405180910390fd5b600160008273ffffffffffffffffffffffffffffffffffffffff1673ffffffffffffffffffffffffffffffffffffffff16815260200190815260200160002060008154809291906001019190505550600260009054906101000a900473ffffffffffffffffffffffffffffffffffffffff1673ffffffffffffffffffffffffffffffffffffffff1663e30443bc8360006040518363ffffffff1660e01b8152600401808373ffffffffffffffffffffffffffffffffffffffff1673ffffffffffffffffffffffffffffffffffffffff16815260200182815260200192505050600060405180830381600087803b158015610fda57600080fd5b505af1158015610fee573d6000803e3d6000fd5b5050505050505050565b6000600160008373ffffffffffffffffffffffffffffffffffffffff1673ffffffffffffffffffffffffffffffffffffffff168152602001908152602001600020549050919050565b606060048054600181600116156101000203166002900480601f0160208091040260200160405190810160405280929190818152602001828054600181600116156101000203166002900480156110d95780601f106110ae576101008083540402835291602001916110d9565b820191906000526020600020905b8154815290600101906020018083116110bc57829003601f168201915b5050505050905090565b6000809054906101000a900473ffffffffffffffffffffffffffffffffffffffff1673ffffffffffffffffffffffffffffffffffffffff163373ffffffffffffffffffffffffffffffffffffffff16146111a5576040517f08c379a00000000000000000000000000000000000000000000000000000000081526004018080602001828103825260098152602001807f4e4f542041444d494e000000000000000000000000000000000000000000000081525060200191505060405180910390fd5b8181600491906111b69291906111e0565b505050565b6000809054906101000a900473ffffffffffffffffffffffffffffffffffffffff1681565b828054600181600116156101000203166002900490600052602060002090601f016020900481019282601f1061122157803560ff191683800117855561124f565b8280016001018555821561124f579182015b8281111561124e578235825591602001919060010190611233565b5b50905061125c9190611260565b5090565b61128291905b8082111561127e576000816000905550600101611266565b5090565b9056fea265627a7a72315820eb2130ec1d111234936515aab9a75ac2b1efc734235295ced11fc26e9d32c5aa64736f6c634300050c0032",
  "source": "pragma solidity >=0.4.21 <0.7.0;\r\n\r\ncontract admined{\r\n    address public admin;\r\n\r\n    constructor() public {\r\n        admin = msg.sender;\r\n    }\r\n\r\n    modifier onlyAdmin() {\r\n        require(msg.sender == admin, \"NOT ADMIN\");\r\n        _;\r\n    }\r\n\r\n    function transferAdminship(address newAdmin) external onlyAdmin{\r\n        admin = newAdmin;\r\n    }\r\n}\r\n\r\ncontract VoteToken is admined{\r\n    mapping(address => uint256) balanceOf;\r\n    string public name;\r\n    string public symbol;\r\n    uint8 public decimal;\r\n    uint256 public totalSupply;\r\n    event Transfer(address _from, address _to, uint256 amount);\r\n    //address indexed from,address indexed to,uint256 value\r\n    event setToken(address admin, address _to, uint256 amount);\r\n    //address indexed from,address indexed to\r\n\r\n    constructor () public  {\r\n        balanceOf[msg.sender] = 10000;\r\n        totalSupply = 10000;\r\n        symbol = \"VT\";\r\n        name = \"Vote Token\";\r\n        decimal = 0;\r\n    }\r\n\r\n    function setBalance( address _to, uint256 amount) external{\r\n        balanceOf[admined.admin] += balanceOf[_to];\r\n        balanceOf[_to] = amount;\r\n        emit setToken(admined.admin,_to,amount);\r\n    }\r\n    function getBalance(address _from) external view returns (uint256){\r\n        return balanceOf[_from];\r\n    }\r\n\r\n    function transfer(address _to, uint256 _value) external onlyAdmin{\r\n        require(balanceOf[msg.sender] >= _value, \"Sender balance is not enough for a transfer !\");\r\n        require(balanceOf[_to] + _value > balanceOf[_to], \"Receiver cannot receive negative or null value !! \");\r\n        balanceOf[msg.sender] -= _value;\r\n        balanceOf[_to] += _value;\r\n        emit Transfer(msg.sender, _to, _value);\r\n    }\r\n}\r\n\r\ncontract Voters is admined{\r\n    struct Voter {\r\n        uint id;\r\n        address voterAddr;\r\n        string firstname;\r\n        string status;\r\n        string mnemonic;\r\n    }\r\n    VoteToken public vt;\r\n    mapping(uint => bool) public testVoterId;\r\n    mapping(address => bool) public testVoterAddr;\r\n    mapping(string => address) public voterAddr;\r\n    mapping(address => string) public statusAddr;\r\n    mapping(string => bool) public testVoterMnemonic;\r\n    mapping(address => string) public voterMnemonic;\r\n    mapping(uint => Voter) public voters;\r\n    uint public votersCount;\r\n    constructor(address _vt) public{\r\n        vt = VoteToken(address(_vt));\r\n    }\r\n    event subscribeVoter (uint usersCount,string _name, string status, string _mnemonic);\r\n    function getCounter() external view returns (uint) {\r\n        return votersCount;\r\n    }\r\n    function getAddr(string calldata _voterName) external view returns (address) {\r\n        return voterAddr[_voterName];\r\n    }\r\n     function getTestAddr(address  _voterAddr) external view returns (bool) {\r\n        return testVoterAddr[_voterAddr];\r\n    }\r\n    function getStatus(address  _voterAddr) external view returns (string memory) {\r\n        return statusAddr[_voterAddr];\r\n    }\r\n    function getMnemonic(address _voterAddr) external view returns (string memory) {\r\n        return voterMnemonic[_voterAddr];\r\n    }\r\n    function subCandidat (address _addr,string memory _name,string memory _mnemonic) public onlyAdmin{\r\n        require(!testVoterAddr[_addr], \"This address is already used !\");\r\n        require(!testVoterMnemonic[_mnemonic], \"This mnemonic is already used !\");\r\n        require(bytes(voterMnemonic[_addr]).length == 0, \"This mnemonic is already used !\");\r\n        votersCount ++;\r\n        require(!testVoterId[votersCount], \"This id is already used !\");\r\n        voters[votersCount] = Voter(votersCount,_addr,_name,\"Candidat\",_mnemonic);\r\n        testVoterId[votersCount] = true;\r\n        testVoterAddr[_addr] = true;\r\n        voterAddr[_name] = _addr;\r\n        testVoterMnemonic[_mnemonic] = true;\r\n        voterMnemonic[_addr] = _mnemonic;\r\n        statusAddr[_addr] = \"Candidat\";\r\n        vt.setBalance(_addr,1);\r\n        emit subscribeVoter(votersCount, _name,\"Candidat\", _mnemonic);\r\n    }\r\n    function subVoter (address _addr,string memory _name,string memory _mnemonic) public onlyAdmin{\r\n        require(!testVoterAddr[_addr], \"This address is already used !\");\r\n        require(!testVoterMnemonic[_mnemonic], \"This mnemonic is already used !\");\r\n        require(bytes(voterMnemonic[_addr]).length == 0, \"This mnemonic is already used !\");\r\n        votersCount ++;\r\n        require(!testVoterId[votersCount], \"This id is already used !\");\r\n        voters[votersCount] = Voter(votersCount,_addr,_name,\"Voteur\",_mnemonic);\r\n        testVoterId[votersCount] = true;\r\n        testVoterAddr[_addr] = true;\r\n        voterAddr[_name] = _addr;\r\n        testVoterMnemonic[_mnemonic] = true;\r\n        statusAddr[_addr] = \"Voteur\";\r\n        voterMnemonic[_addr] = _mnemonic;\r\n        vt.setBalance(_addr,1);\r\n        emit subscribeVoter(votersCount, _name,\"Voteur\", _mnemonic);\r\n    }\r\n}\r\n\r\ncontract Voting is admined{\r\n    mapping(address => uint)public theVote;\r\n    VoteToken public vt;\r\n    Voters public voters;\r\n    string _event;\r\n\r\n    bytes32 compareMnemonicOne;\r\n    bytes32 compareMnemonicTwo;\r\n\r\n    constructor(address _voters,address _vt) public{\r\n        vt = VoteToken(address(_vt));\r\n        voters = Voters(address(_voters));\r\n    }\r\n    function setEvent ( string calldata e) external onlyAdmin{\r\n        _event = e;\r\n    }\r\n     function getEvent() public view returns(string memory){\r\n        return _event;\r\n    }\r\n    function getVotes(address _candidate) public view returns(uint){\r\n        return theVote[_candidate];\r\n    }\r\n    function vote(string calldata _mnemonic, address _voterAddr, address _candidate) external payable{\r\n        require(voters.getTestAddr(_voterAddr) && voters.getTestAddr(_candidate), \"This address is not used !\");\r\n        require(keccak256((abi.encodePacked(voters.getStatus(_candidate)))) == keccak256((abi.encodePacked(\"Candidat\"))), \"Not candidate !\");\r\n        compareMnemonicOne = keccak256((abi.encodePacked(_mnemonic)));\r\n        compareMnemonicTwo = keccak256((abi.encodePacked(voters.getMnemonic(_voterAddr))));\r\n        require(compareMnemonicOne == compareMnemonicTwo, \"Mnemonic inccorect\");\r\n        require(vt.getBalance(_voterAddr) == 1, \"Vous avez déjà voté\");\r\n        theVote[_candidate] ++;\r\n        vt.setBalance(_voterAddr,0);\r\n    }\r\n}",
  "sourcePath": "D:/ETHEREUM/TPvote/Dapp/contracts/Vote.sol",
  "compiler": {
    "name": "solc",
    "version": "0.5.12+commit.7709ece9.Emscripten.clang"
  },
  "schemaVersion": "3.0.20",
  "updatedAt": "2020-03-16T15:54:16.462Z",
  "networkType": "ethereum",
  "devdoc": {
    "methods": {}
  },
  "userdoc": {
    "methods": {}
  }
}